:1000000002009A803E780179007A007B227D0C7C88
:100010000012005B792C879075B000752000801964
:100020007422A920780029F987A00520E52024F66C
:1000300050028002800375200020B002800280E020
:1000400080DC2280C0898288838B00EC4D6036E49E
:10005000E0F608A31DBDFFF31C80F0B800118B0073
:10006000EC4D6021E7F609081DBDFFF41C80F18905
:100070008288838B00EC4D600CE493F608A31DBDD1
:10008000FFF31C80F022E4F5D075812E78207A0EE3
:0D009000F608DAFC120003020000020086F0
:0C010000C0B08290FF0000000000000072
:00000001FF
