:100000000200F10200EE75220175234E780179009D
:100010007A007B247D057C001201DA780179057A6B
:10002000007B297D057C001201DA7801790A7A00CB
:100030007B2E7D327C001201DA752000E52024FB46
:100040005002800280030200EA7429A92078002966
:10005000F987B0752100E52124FB5002800280025F
:10006000807B7424A921780029F9E7B59063758015
:100070003875A00175A00075808075A00175A0007D
:10008000E52175F005A42520500205F0A8F0A9E0AF
:10009000E9C333F9E833F8742E29F9872209872355
:1000A000752000E52024FE5002800280028022E5B7
:1000B000202523F582E43522F583120151F5807560
:1000C000A00375A0020520E52024FE5002800280D6
:1000D000DE0521E52124FB5002800280850520E514
:1000E0002024FB5002800302004902003922020052
:0400F00006020205FD
:10010000FEFDFBF7EF1E1D1B170F014C014A0148B6
:100110000146014401420140013E013C0000000053
:1001200000000000000000000000000000000000CF
:10013000000000000000000000000000390038004E
:1001400037003600350034003300320031003030E3
:1001500000E5836003E49322A882E622E58360043D
:10016000E4938003A882E6F822E5836004E49380A8
:1001700003A882E6F922E5836004E4938003A88261
:10018000E6FA22E5836004E4938003A882E6FB227A
:10019000E5836004E4938003A882E6FC22E58360A3
:1001A00004E4938003A882E6FD22E5836004E493DF
:1001B0008003A882E6FE22E5836004E4938003A81E
:1001C00082E6FF22898288838B00EC4D6036E4E072
:1001D000F608A31DBDFFF31C80F0B800118B00ECE6
:1001E0004D6021E7F609081DBDFFF41C80F18982EE
:1001F00088838B00EC4D600CE493F608A31DBDFFD3
:10020000F31C80F022E4F5D075816078207A40F606
:0902100008DAFC120003020000F0
:00000001FF
