:1000000002008C80338C208D218013758CD8758AEA
:10001000F0D28C308D02800280F9C28DC28CAC206F
:10002000E521FD152170021520ED24FFEC648034DC
:100030007F4002800280D42280CB803E758901758A
:1000400090007590017C007D641200037590067C21
:10005000017D901200037590207C007D64120003E6
:100060007590407C017D901200037590187C037D93
:100070002012000375900080FE2280C0E4F5D07548
:0F0080008122F520F52112003A02000002007CD7
:00000001FF
