:1000000002008AE5836003E49322A882E622E58366
:100010006004E4938003A882E6F822E5836004E4A8
:10002000938003A882E6F922E5836004E4938003C9
:10003000A882E6FA22E5836004E4938003A882E6BE
:10004000FB22E5836004E4938003A882E6FC22E5BA
:10005000836004E4938003A882E6FD22E5836004C4
:10006000E4938003A882E6FE22E5836004E49380A3
:1000700003A882E6FF22E4F5D075813A78207A1A47
:0D008000F608DAFC12011102000002007601
:100100002F2A2D2B3D3336393032353843313437B1
:100110000002044DE4F526F527E4F528F529E4F579
:100120002AF52BE4F52CF52DE4F52EF52FE4F5302A
:10013000F531E4F532F533E4F534F535753601750E
:10014000370075380175391075803875808075A055
:100150000175A0007520FF7521FF7590EFE590B443
:10016000EE0C75200075210F753200753301E59096
:10017000B4ED0C75200075210E752800752901E578
:1001800090B4EB0C75200075210D752600752701C4
:10019000E590B4E70975800175A00175A000759020
:1001A000DFE590B4DE0675200075210BE590B4DD27
:1001B0000C75200075210A753000753101E590B489
:1001C000DB0C752000752109752C00752D01E5905B
:1001D000B4D70C752000752108752E00752F017598
:1001E00090BFE590B4BE06752000752107E590B478
:1001F000BD0C752000752106753400753501E5903C
:10020000B4BB0C752000752105752A00752B01E51E
:1002100090B4B70675200075210475907FE590B401
:100220007E06752000752103E590B47D06752000DB
:10023000752102E590B47B06752000752101E590DB
:10024000B47705E4F520F521E521B4FF09E520B4F4
:10025000FF0480008017E5212537F582E52035363B
:10026000F583120003F58075A00375A002E525B49F
:10027000FF07E524B4FF02800EE52FB40109E52E47
:10028000B4000480008002800EE531B40109E5303D
:10029000B4000480008002800EE533B40109E53229
:1002A000B4000480008002800EE535B40109E53415
:1002B000B40004800080058000020374E523253922
:1002C000F582E5223538F583120003F58075A00329
:1002D00075A002E5232539F582E5223538F583122C
:1002E0000003F58075A00375A002E5232539F5828A
:1002F000E5223538F583120003F58075A00375A05B
:1003000002E5232539F582E5223538F5831200030D
:10031000F58075A00375A00275804875A00375A0CF
:100320000275804575A00375A00275804275A00313
:1003300075A00275804575A00375A0027580507583
:10034000A00375A00275804875A00375A002758092
:100350004F75A00375A002E5232539F582E5223506
:1003600038F583120003F58075A00375A00275248B
:10037000FF7525FFE523B4FF07E522B4FF02800ED9
:10038000E527B40109E526B4000480008002800E50
:10039000E529B40109E528B4000480008002800E3C
:1003A000E52BB40109E52AB4000480008002800E28
:1003B000E52DB40109E52CB400048000800580001F
:1003C000020449E5232539F582E5223538F5831203
:1003D0000003F58075A00375A002E5232539F58299
:1003E000E5223538F583120003F58075A00375A06A
:1003F00002E5232539F582E5223538F5831200031D
:10040000F58075A00375A002E5232539F582E52264
:100410003538F583120003F58075A00375A00275C9
:10042000804275A00375A00275805875A00375A061
:100430000275804F75A00375A00275804475A003F6
:1004400075A0027522FF7523FF02015422020114D8
:00000001FF
