:10000000020058898288838B00EC4D6036E4E0F66C
:1000100008A31DBDFFF31C80F0B800118B00EC4D50
:100020006021E7F609081DBDFFF41C80F189828874
:10003000838B00EC4D600CE493F608A31DBDFFF329
:100040001C80F022E4F5D075814978207A29F608E1
:0B005000DAFC1201480200000200442C
:1001000042414A374B4F42434B7575427554614AE1
:100110003775754B4F48435441485475484F4275A5
:10012000272D7C0080208DE07598CC758920758DF9
:10013000FF758BFFD28E8D998D488000309902809B
:100140000280F9C2992280DE020236E4F520F52110
:10015000E4F522F523780179007A007B247D0B7C7D
:10016000001200197801790B7A007B2F7D087C0042
:10017000120019780179137A007B377D117C001207
:100180000019758780E4F520F521E52124F5E520A7
:1001900034FF500280028002802074242521F987D8
:1001A000051201240521E52170020520E52124F531
:1001B000E52034FF5002800280E07D02120124E439
:1001C000F520F521E52124F8E52034FF50028002D6
:1001D00080028020742F2521F98705120124052132
:1001E000E52170020520E52124F8E52034FF5002C6
:1001F000800280E07D02120124E4F520F521E52152
:1002000024EFE52034FF5002800280028020743702
:100210002521F987051201240521E5217002052019
:10022000E52124EFE52034FF5002800280E07D0AC2
:0902300012012480FE2202014BA0
:00000001FF
