:100000000200C90200B2752201752308752401752A
:10001000250075A03875A00175A00075A08075A099
:100020000175A000752000752107E52124F8E52061
:1000300034FF500280028002802DE5212523F582C5
:10004000E5203522F583120111F58075A00375A016
:10005000020521E52170020520E52124F8E5203480
:10006000FF5002800280D3E4F520F521E52124F839
:10007000E52034FF500280028002802DE5212525F5
:10008000F582E5203524F583120111F58075A00372
:1000900075A0020521E52170020520E52124F8E57F
:1000A0002034FF5002800280D375800175A001804A
:1000B000FE22020006E4F5D075812678207A06F645
:0C00C00008DAFC1200030200000200B588
:10010000566974616C696A0020202020202020201C
:1001100000E5836003E49322A882E622E58360047D
:10012000E4938003A882E6F822E5836004E49380E8
:1001300003A882E6F922E5836004E4938003A882A1
:10014000E6FA22E5836004E4938003A882E6FB22BA
:10015000E5836004E4938003A882E6FC22E58360E3
:1001600004E4938003A882E6FD22E5836004E4931F
:100170008003A882E6FE22E5836004E4938003A85E
:0401800082E6FF22F2
:00000001FF
